{
  "address": "0x75c9A259B4c2e31B074B02536911B8661BF26a2C",
  "abi": [
    {
      "inputs": [
        {
          "internalType": "contract IERC20",
          "name": "_token",
          "type": "address"
        },
        {
          "internalType": "address",
          "name": "_owner",
          "type": "address"
        },
        {
          "internalType": "address",
          "name": "_recoveryWallet",
          "type": "address"
        }
      ],
      "stateMutability": "nonpayable",
      "type": "constructor"
    },
    {
      "anonymous": false,
      "inputs": [
        {
          "indexed": true,
          "internalType": "address",
          "name": "previousOwner",
          "type": "address"
        },
        {
          "indexed": true,
          "internalType": "address",
          "name": "newOwner",
          "type": "address"
        }
      ],
      "name": "OwnershipTransferred",
      "type": "event"
    },
    {
      "anonymous": false,
      "inputs": [
        {
          "indexed": true,
          "internalType": "address",
          "name": "_beneficiary",
          "type": "address"
        },
        {
          "indexed": true,
          "internalType": "address",
          "name": "_cancelledBy",
          "type": "address"
        },
        {
          "indexed": false,
          "internalType": "uint256",
          "name": "_remainingBalance",
          "type": "uint256"
        },
        {
          "indexed": false,
          "internalType": "uint256",
          "name": "_canceledTimestamp",
          "type": "uint256"
        }
      ],
      "name": "ScheduleCancelled",
      "type": "event"
    },
    {
      "anonymous": false,
      "inputs": [
        {
          "indexed": true,
          "internalType": "address",
          "name": "_beneficiary",
          "type": "address"
        },
        {
          "indexed": true,
          "internalType": "uint256",
          "name": "_amount",
          "type": "uint256"
        },
        {
          "indexed": true,
          "internalType": "uint256",
          "name": "_startTimestamp",
          "type": "uint256"
        },
        {
          "indexed": false,
          "internalType": "uint256",
          "name": "_duration",
          "type": "uint256"
        }
      ],
      "name": "ScheduleCreated",
      "type": "event"
    },
    {
      "anonymous": false,
      "inputs": [
        {
          "indexed": true,
          "internalType": "address",
          "name": "_beneficiary",
          "type": "address"
        },
        {
          "indexed": true,
          "internalType": "uint256",
          "name": "_amount",
          "type": "uint256"
        },
        {
          "indexed": true,
          "internalType": "uint256",
          "name": "_time",
          "type": "uint256"
        }
      ],
      "name": "Withdraw",
      "type": "event"
    },
    {
      "inputs": [
        {
          "internalType": "address",
          "name": "_beneficiary",
          "type": "address"
        }
      ],
      "name": "cancelVestingForBeneficiary",
      "outputs": [],
      "stateMutability": "nonpayable",
      "type": "function"
    },
    {
      "inputs": [
        {
          "internalType": "address",
          "name": "_beneficiary",
          "type": "address"
        },
        {
          "internalType": "uint256",
          "name": "_amount",
          "type": "uint256"
        },
        {
          "internalType": "uint256",
          "name": "_startTimestamp",
          "type": "uint256"
        },
        {
          "internalType": "uint256",
          "name": "_durationInDays",
          "type": "uint256"
        }
      ],
      "name": "createVestingSchedule",
      "outputs": [],
      "stateMutability": "nonpayable",
      "type": "function"
    },
    {
      "inputs": [],
      "name": "emergencyWithdrawAllTokens",
      "outputs": [],
      "stateMutability": "nonpayable",
      "type": "function"
    },
    {
      "inputs": [
        {
          "internalType": "address",
          "name": "_beneficiary",
          "type": "address"
        }
      ],
      "name": "getAvailableWithdrawAmountForAddress",
      "outputs": [
        {
          "internalType": "uint256",
          "name": "_amount",
          "type": "uint256"
        }
      ],
      "stateMutability": "view",
      "type": "function"
    },
    {
      "inputs": [],
      "name": "owner",
      "outputs": [
        {
          "internalType": "address",
          "name": "",
          "type": "address"
        }
      ],
      "stateMutability": "view",
      "type": "function"
    },
    {
      "inputs": [],
      "name": "recoveryWallet",
      "outputs": [
        {
          "internalType": "address",
          "name": "",
          "type": "address"
        }
      ],
      "stateMutability": "view",
      "type": "function"
    },
    {
      "inputs": [],
      "name": "renounceOwnership",
      "outputs": [],
      "stateMutability": "nonpayable",
      "type": "function"
    },
    {
      "inputs": [],
      "name": "token",
      "outputs": [
        {
          "internalType": "contract IERC20",
          "name": "",
          "type": "address"
        }
      ],
      "stateMutability": "view",
      "type": "function"
    },
    {
      "inputs": [],
      "name": "tokenBalance",
      "outputs": [
        {
          "internalType": "uint256",
          "name": "",
          "type": "uint256"
        }
      ],
      "stateMutability": "view",
      "type": "function"
    },
    {
      "inputs": [
        {
          "internalType": "address",
          "name": "newOwner",
          "type": "address"
        }
      ],
      "name": "transferOwnership",
      "outputs": [],
      "stateMutability": "nonpayable",
      "type": "function"
    },
    {
      "inputs": [
        {
          "internalType": "address",
          "name": "_beneficiary",
          "type": "address"
        }
      ],
      "name": "vestingScheduleForBeneficiary",
      "outputs": [
        {
          "internalType": "uint256",
          "name": "_startTimestamp",
          "type": "uint256"
        },
        {
          "internalType": "uint256",
          "name": "_endTimestamp",
          "type": "uint256"
        },
        {
          "internalType": "uint256",
          "name": "_canceledTimestamp",
          "type": "uint256"
        },
        {
          "internalType": "uint256",
          "name": "_amount",
          "type": "uint256"
        },
        {
          "internalType": "uint256",
          "name": "_totalDrawn",
          "type": "uint256"
        },
        {
          "internalType": "uint256",
          "name": "_lastDrawnAt",
          "type": "uint256"
        },
        {
          "internalType": "uint256",
          "name": "_withdrawRate",
          "type": "uint256"
        },
        {
          "internalType": "uint256",
          "name": "_remainingBalance",
          "type": "uint256"
        }
      ],
      "stateMutability": "view",
      "type": "function"
    },
    {
      "inputs": [],
      "name": "withdraw",
      "outputs": [],
      "stateMutability": "nonpayable",
      "type": "function"
    }
  ],
  "transactionHash": "0x8d48ba78a643ad809bf98a0c388577b2aff8ac7106e656eb795dd1a55a4e7bee",
  "args": [
    "0xe2dCA969624795985F2f083BcD0b674337ba130a",
    "0x87F9F7e6C9502D2Ce13dae9BA716e54cA98f118F",
    "0x53745Cc2c6Dc4B1468F41D286Cd1AAb7aa7a1B81"
  ],
  "numDeployments": 1,
  "solcInputHash": "c6664031382856e9cfb011db38ae689d",
  "bytecode": "0x60806040523480156200001157600080fd5b50604051620013ce380380620013ce833981016040819052620000349162000273565b6001600055620000443362000144565b600380546001600160a01b0319166001600160a01b03858116919091179091558216620000b85760405162461bcd60e51b815260206004820152601560248201527f4f776e65722063616e6e6f7420626520656d707479000000000000000000000060448201526064015b60405180910390fd5b620000c38262000196565b6001600160a01b0381166200011b5760405162461bcd60e51b815260206004820152601f60248201527f5265636f766572792077616c6c65742063616e6e6f7420626520656d707479006044820152606401620000af565b600480546001600160a01b0319166001600160a01b039290921691909117905550620002dc9050565b600180546001600160a01b038381166001600160a01b0319831681179093556040519116919082907f8be0079c531659141344cd1fd0a4f28419497f9722a3daafe3b4186f6b6457e090600090a35050565b620001a062000215565b6001600160a01b038116620002075760405162461bcd60e51b815260206004820152602660248201527f4f776e61626c653a206e6577206f776e657220697320746865207a65726f206160448201526564647265737360d01b6064820152608401620000af565b620002128162000144565b50565b6001546001600160a01b03163314620002715760405162461bcd60e51b815260206004820181905260248201527f4f776e61626c653a2063616c6c6572206973206e6f7420746865206f776e65726044820152606401620000af565b565b60008060006060848603121562000288578283fd5b83516200029581620002c6565b6020850151909350620002a881620002c6565b6040850151909250620002bb81620002c6565b809150509250925092565b6001600160a01b03811681146200021257600080fd5b6110e280620002ec6000396000f3fe608060405234801561001057600080fd5b50600436106100b45760003560e01c80638da5cb5b116100715780638da5cb5b146101375780639e1a4d1914610148578063c570b83514610150578063efacabf01461019e578063f2fde38b146101b1578063fc0c546a146101c4576100b4565b8063324d2f68146100b95780633ccfd60b146100df5780633ec954ed146100e95780633f4e8e80146101145780635624dfc614610127578063715018a61461012f575b600080fd5b6100cc6100c7366004610f60565b6101d7565b6040519081526020015b60405180910390f35b6100e761024d565b005b6004546100fc906001600160a01b031681565b6040516001600160a01b0390911681526020016100d6565b6100e7610122366004610f81565b61049b565b6100e7610841565b6100e7610972565b6001546001600160a01b03166100fc565b6100cc610984565b61016361015e366004610f60565b610a05565b604080519889526020890197909752958701949094526060860192909252608085015260a084015260c083015260e0820152610100016100d6565b6100e76101ac366004610f60565b610aac565b6100e76101bf366004610f60565b610cfe565b6003546100fc906001600160a01b031681565b6001600160a01b0381166000908152600260208181526040808420815160e0810183528154815260018201549381019390935292830154908201526003820154606082015260048201546080820152600582015460a082015260069091015460c082015261024481610d74565b9150505b919050565b610255610e43565b33600090815260026020818152604092839020835160e08101855281548152600182015492810192909252918201549281019290925260038101546060830181905260048201546080840152600582015460a084015260069091015460c08301526103185760405162461bcd60e51b815260206004820152602860248201527f5468657265206973206e6f207363686564756c652063757272656e746c7920696044820152671b88199b1a59da1d60c21b60648201526084015b60405180910390fd5b600061032382610d74565b90506000811161036b5760405162461bcd60e51b81526020600482015260136024820152724e6f7468696e6720746f20776974686472617760681b604482015260640161030f565b336000908152600260205260409020426005909101556080820151610391908290611028565b60026000336001600160a01b0390811682526020820192909252604001600020600401919091556003541663a9059cbb336040516001600160e01b031960e084901b1681526001600160a01b03909116600482015260248101849052604401602060405180830381600087803b15801561040a57600080fd5b505af115801561041e573d6000803e3d6000fd5b505050506040513d601f19601f820116820180604052508101906104429190610fb9565b61045e5760405162461bcd60e51b815260040161030f90610ff1565b6040514290829033907ff279e6a1f5e320cca91135676d9cb6e44ca8a08c0b88342bcdb1144f6511b56890600090a450506104996001600055565b565b6104a3610e9d565b6001600160a01b0384166104f95760405162461bcd60e51b815260206004820152601b60248201527f42656e65666963696172792063616e6e6f7420626520656d7074790000000000604482015260640161030f565b600083116105425760405162461bcd60e51b8152602060048201526016602482015275416d6f756e742063616e6e6f7420626520656d70747960501b604482015260640161030f565b600081116105925760405162461bcd60e51b815260206004820152601860248201527f4475726174696f6e2063616e6e6f7420626520656d7074790000000000000000604482015260640161030f565b4282116105e15760405162461bcd60e51b815260206004820181905260248201527f43616e206e6f742073657420746865206461746520696e207468652070617374604482015260640161030f565b6001600160a01b0384166000908152600260205260409020600301541561064a5760405162461bcd60e51b815260206004820152601760248201527f5363686564756c6520616c726561647920657869737473000000000000000000604482015260640161030f565b60006106596201518083611060565b90506040518060e0016040528084815260200182856106789190611028565b815260200160008152602001858152602001600081526020016000815260200182866106a49190611040565b90526001600160a01b03861660008181526002602081815260409283902085518082559186015160018201558584015192810192909255606085015160038301556080850151600483015560a0850151600583015560c090940151600690910155518691907f5ab0cb75fe24f04dbfe14b847f8579bc91baa153ee5b2758fcfa59f33675b162906107389087815260200190565b60405180910390a46003546001600160a01b03166323b872dd336040516001600160e01b031960e084901b1681526001600160a01b03909116600482015230602482015260448101879052606401602060405180830381600087803b1580156107a057600080fd5b505af11580156107b4573d6000803e3d6000fd5b505050506040513d601f19601f820116820180604052508101906107d89190610fb9565b61083a5760405162461bcd60e51b815260206004820152602d60248201527f556e61626c6520746f207472616e7366657220746f6b656e7320746f2076657360448201526c1d1a5b99c818dbdb9d1c9858dd609a1b606482015260840161030f565b5050505050565b610849610e9d565b6003546040516370a0823160e01b81523060048201526000916001600160a01b0316906370a082319060240160206040518083038186803b15801561088d57600080fd5b505afa1580156108a1573d6000803e3d6000fd5b505050506040513d601f19601f820116820180604052508101906108c59190610fd9565b6003546004805460405163a9059cbb60e01b81526001600160a01b03918216928101929092526024820184905292935091169063a9059cbb90604401602060405180830381600087803b15801561091b57600080fd5b505af115801561092f573d6000803e3d6000fd5b505050506040513d601f19601f820116820180604052508101906109539190610fb9565b61096f5760405162461bcd60e51b815260040161030f90610ff1565b50565b61097a610e9d565b6104996000610ef7565b6003546040516370a0823160e01b81523060048201526000916001600160a01b0316906370a082319060240160206040518083038186803b1580156109c857600080fd5b505afa1580156109dc573d6000803e3d6000fd5b505050506040513d601f19601f82011682018060405250810190610a009190610fd9565b905090565b6001600160a01b0381166000908152600260208181526040808420815160e0810183528154808252600183015494820185905294820154928101839052600382015460608201819052600483015460808301819052600584015460a0840181905260069094015460c0840181905288978897889788978897889788979196909290610a90838561107f565b9850985098509850985098509850985050919395975091939597565b610ab4610e9d565b6001600160a01b03811660009081526002602081905260409091209081015415610b175760405162461bcd60e51b815260206004820152601460248201527343616e206e6f742063616e63656c20747769636560601b604482015260640161030f565b42816001015411610b6a5760405162461bcd60e51b815260206004820152601b60248201527f56657374696e6720697320616c72656164792066696e69736865640000000000604482015260640161030f565b6040805160e08101825282548152600183015460208201526002830154918101919091526003820154606082015260048201546080820152600582015460a0820152600682015460c0820152600090610bc290610d74565b4260028401556004830154909150600090610bdd9083611028565b90506000818460030154610bf1919061107f565b6003858101849055546004805460405163a9059cbb60e01b81526001600160a01b03918216928101929092526024820184905292935091169063a9059cbb90604401602060405180830381600087803b158015610c4d57600080fd5b505af1158015610c61573d6000803e3d6000fd5b505050506040513d601f19601f82011682018060405250810190610c859190610fb9565b610ca15760405162461bcd60e51b815260040161030f90610ff1565b6001600160a01b0385166000818152600260208181526040928390209091015482518781529182015281513393927fbc2075d9ef107583b6d08c65185a920ae48465167bcc8d1a42829d206a894d1a928290030190a35050505050565b610d06610e9d565b6001600160a01b038116610d6b5760405162461bcd60e51b815260206004820152602660248201527f4f776e61626c653a206e6577206f776e657220697320746865207a65726f206160448201526564647265737360d01b606482015260840161030f565b61096f81610ef7565b80516000904211610d8757506000610248565b816020015142118015610d9c57506040820151155b15610dbc5781608001518260600151610db5919061107f565b9050610248565b816040015142118015610dd25750604082015115155b15610e135781516040830151600091610dea9161107f565b905082608001518360c0015182610e019190611060565b610e0b919061107f565b915050610248565b8151600090610e22904261107f565b905082608001518360c0015182610e399190611060565b610244919061107f565b60026000541415610e965760405162461bcd60e51b815260206004820152601f60248201527f5265656e7472616e637947756172643a207265656e7472616e742063616c6c00604482015260640161030f565b6002600055565b6001546001600160a01b031633146104995760405162461bcd60e51b815260206004820181905260248201527f4f776e61626c653a2063616c6c6572206973206e6f7420746865206f776e6572604482015260640161030f565b600180546001600160a01b038381166001600160a01b0319831681179093556040519116919082907f8be0079c531659141344cd1fd0a4f28419497f9722a3daafe3b4186f6b6457e090600090a35050565b80356001600160a01b038116811461024857600080fd5b600060208284031215610f71578081fd5b610f7a82610f49565b9392505050565b60008060008060808587031215610f96578283fd5b610f9f85610f49565b966020860135965060408601359560600135945092505050565b600060208284031215610fca578081fd5b81518015158114610f7a578182fd5b600060208284031215610fea578081fd5b5051919050565b60208082526019908201527f556e61626c6520746f207472616e7366657220746f6b656e7300000000000000604082015260600190565b6000821982111561103b5761103b611096565b500190565b60008261105b57634e487b7160e01b81526012600452602481fd5b500490565b600081600019048311821515161561107a5761107a611096565b500290565b60008282101561109157611091611096565b500390565b634e487b7160e01b600052601160045260246000fdfea2646970667358221220bb640dbe71635da0702f7bbda20393d20f1d93df03ccf759374f848d4d6e957664736f6c63430008020033",
  "devdoc": {
    "kind": "dev",
    "methods": {
      "owner()": {
        "details": "Returns the address of the current owner."
      },
      "renounceOwnership()": {
        "details": "Leaves the contract without owner. It will not be possible to call `onlyOwner` functions. Can only be called by the current owner. NOTE: Renouncing ownership will leave the contract without an owner, thereby disabling any functionality that is only available to the owner."
      },
      "transferOwnership(address)": {
        "details": "Transfers ownership of the contract to a new account (`newOwner`). Can only be called by the current owner."
      }
    },
    "version": 1
  },
  "userdoc": {
    "kind": "user",
    "methods": {},
    "version": 1
  },
  "storageLayout": {
    "storage": [
      {
        "astId": 123,
        "contract": "contracts/VestingContract.sol:VestingContract",
        "label": "_status",
        "offset": 0,
        "slot": "0",
        "type": "t_uint256"
      },
      {
        "astId": 7,
        "contract": "contracts/VestingContract.sol:VestingContract",
        "label": "_owner",
        "offset": 0,
        "slot": "1",
        "type": "t_address"
      },
      {
        "astId": 956,
        "contract": "contracts/VestingContract.sol:VestingContract",
        "label": "vestingSchedule",
        "offset": 0,
        "slot": "2",
        "type": "t_mapping(t_address,t_struct(Schedule)951_storage)"
      },
      {
        "astId": 959,
        "contract": "contracts/VestingContract.sol:VestingContract",
        "label": "token",
        "offset": 0,
        "slot": "3",
        "type": "t_contract(IERC20)842"
      },
      {
        "astId": 964,
        "contract": "contracts/VestingContract.sol:VestingContract",
        "label": "recoveryWallet",
        "offset": 0,
        "slot": "4",
        "type": "t_address"
      }
    ],
    "types": {
      "t_address": {
        "encoding": "inplace",
        "label": "address",
        "numberOfBytes": "20"
      },
      "t_contract(IERC20)842": {
        "encoding": "inplace",
        "label": "contract IERC20",
        "numberOfBytes": "20"
      },
      "t_mapping(t_address,t_struct(Schedule)951_storage)": {
        "encoding": "mapping",
        "key": "t_address",
        "label": "mapping(address => struct VestingContract.Schedule)",
        "numberOfBytes": "32",
        "value": "t_struct(Schedule)951_storage"
      },
      "t_struct(Schedule)951_storage": {
        "encoding": "inplace",
        "label": "struct VestingContract.Schedule",
        "members": [
          {
            "astId": 938,
            "contract": "contracts/VestingContract.sol:VestingContract",
            "label": "startTimestamp",
            "offset": 0,
            "slot": "0",
            "type": "t_uint256"
          },
          {
            "astId": 940,
            "contract": "contracts/VestingContract.sol:VestingContract",
            "label": "endTimestamp",
            "offset": 0,
            "slot": "1",
            "type": "t_uint256"
          },
          {
            "astId": 942,
            "contract": "contracts/VestingContract.sol:VestingContract",
            "label": "canceledTimestamp",
            "offset": 0,
            "slot": "2",
            "type": "t_uint256"
          },
          {
            "astId": 944,
            "contract": "contracts/VestingContract.sol:VestingContract",
            "label": "amount",
            "offset": 0,
            "slot": "3",
            "type": "t_uint256"
          },
          {
            "astId": 946,
            "contract": "contracts/VestingContract.sol:VestingContract",
            "label": "totalDrawn",
            "offset": 0,
            "slot": "4",
            "type": "t_uint256"
          },
          {
            "astId": 948,
            "contract": "contracts/VestingContract.sol:VestingContract",
            "label": "lastDrawnAt",
            "offset": 0,
            "slot": "5",
            "type": "t_uint256"
          },
          {
            "astId": 950,
            "contract": "contracts/VestingContract.sol:VestingContract",
            "label": "withdrawRate",
            "offset": 0,
            "slot": "6",
            "type": "t_uint256"
          }
        ],
        "numberOfBytes": "224"
      },
      "t_uint256": {
        "encoding": "inplace",
        "label": "uint256",
        "numberOfBytes": "32"
      }
    }
  }
}